:020000040C00EE
:100000000088FE1F010200089902000899020008FA
:1000100099020008990200089902000800000000F7
:10002000000000000000000000000000990200082D
:1000300099020008000000009902000881260008CB
:100040009902000899020008990200089902000824
:100050009902000899020008990200089902000814
:1000600099020008000000000000000000000000ED
:100070009902000800000000990200089902000897
:1000800099020008990200089902000899020008E4
:1000900099020008990200089902000899020008D4
:1000A00099020008990200089902000899020008C4
:1000B00099020008990200089902000899020008B4
:1000C00099020008990200089902000899020008A4
:1000D0009902000899020008990200089902000894
:1000E0009902000899020008990200089902000884
:1000F0009902000899020008990200089902000874
:100100009902000899020008990200089902000863
:100110009902000899020008990200089902000853
:1001200099020008D92B00089902000899020008DA
:100130009902000899020008990200089902000833
:100140009902000899020008990200089902000823
:100150009902000899020008990200089902000813
:10016000000000000000000000000000000000008F
:1001700099020008990200089902000899020008F3
:1001800099020008990200089902000899020008E3
:100190009902000899020008990200081920000835
:1001A0009902000829200008990200089902000815
:1001B00099020008990200089902000899020008B3
:1001C00099020008990200089902000899020008A3
:1001D0009902000899020008990200080000000036
:1001E0009902000899020008990200089902000883
:1001F00099020008000000009902000800000000B9
:10020000DFF874D01D4880471D4C1E4DAC4209DA02
:1002100021686268A368043BA2BFC858D050FAE7BF
:100220000C34F3E7184B194CA34208DA19685A68E2
:100230000020043AA4BF8850FBE70833F4E71448D1
:100240008047144880470000606B000C0088FE1F48
:1002500000020000606B000C0088FE1F0000000020
:10026000008AFE1F78180000000000200000000037
:1002700000000020000000000088FE1F9D02000812
:1002800048020008600200086002000878020008C6
:100290004D380008B5340008FEE7000098B500AFFF
:1002A000054A4FF0005314460FCB84E80F0002F0CC
:1002B00071FB02F0D9FB98BDC4FF032080B584B068
:1002C00000AF2F4BDB6803F48033002B3ED02D4B67
:1002D000DB6803F00103002B02D02B4BFB6002E034
:1002E00002F0B8FBF860274B1B6803F00403002BF7
:1002F00020D0244B9B6803F070631B0E0133BB605E
:10030000204B9B6803F4FE431B0A01337B601D4BAB
:100310009B6803F4FE031B0C01333B60BB683A6827
:1003200002FB03F3FA68B2FBF3F37A6802FB03F310
:10033000FB600DE0134B9B6803F07F0301333B60D0
:10034000FA683B68B2FBF3F3FB6001E00E4BFB6025
:100350000B4BDB68DBB20133FA68B2FBF3F3FB60F3
:10036000074B1B6903F001030133FA68B2FBF3F397
:10037000FB60064AFB6813601037BD4680BD00BFB6
:10038000004600501047005000366E01C0FF0320A9
:1003900080B485B000AFF8600B467A60FB72FB7AE0
:1003A0009B08DBB21846FB7A9B08DBB21A46FB6857
:1003B000043253F82220FB7A03F00303DB001946D2
:1003C000F8238B40DB4302EA0301FB68021D43F87C
:1003D0002210FB685A6FFB7A5B00194603238B409F
:1003E000DB431A40FB685A67FB683A4A934203D0E2
:1003F000FB68394A93420AD1FB681A6EFB7A0121E5
:1004000001FA03F3DB431A40FB681A6642E07B689B
:100410001B78DBB25BB2002B3CDA7B685A68FB7A54
:100420009A40FB685A60FB7ADB08DBB21846FB7A1D
:10043000DB08DBB21A46FB68103253F82220FB7A45
:1004400003F007039B00194607238B40DB4302EAB6
:100450000301FB6800F1100243F82210FB7ADB086D
:10046000DBB21846FB7ADB08DBB21A46FB681032B7
:1004700053F822207B681B7A1946FB7A03F00703A6
:100480009B0001FA03F342EA0301FB6800F110024A
:1004900043F82210FB7A9B08DBB21846FB7A9B08D4
:1004A000DBB21A46FB68043253F822207B681B78C3
:1004B0001946FB7A03F00303DB0001FA03F342EA77
:1004C0000301FB68021D43F822101437BD465DF896
:1004D000047B7047008E0248008F024880B400AF52
:1004E000034B1B681846BD465DF8047B704700BF90
:1004F000C0FF032080B400AF034BD3F8C4301846CC
:10050000BD465DF8047B70470040005080B584B064
:1005100000AF7860FFF7D2FE0B4B1B680B4AA2FBC3
:1005200003239A0C7B6802FB03F37B600023FB60D0
:1005300003E000BFFB680133FB60FA687B689A4206
:10054000F7D31037BD4680BDC0FF032083DE1B43B9
:1005500080B400AF034B5B681846BD465DF8047B72
:10056000704700BF7440005080B483B000AF786023
:10057000034A7B68D3600C37BD465DF8047B704747
:1005800074400050B0B584B002AF7860002000F035
:10059000C5F800F0C7FA7B68DB79002B0AD000F0C1
:1005A000FFFA00BF00F0EAFA034683F00103DBB272
:1005B000002BF7D17B685B7A184600F029F900BF61
:1005C000FFF798FF0346002BFAD17B681B7A184689
:1005D00000F082FA7B681B7C184600F037F97B68D4
:1005E0005B7C184600F05AF97B689B7C184600F04B
:1005F00041F97B68DB7C184600F064F97B689B79E5
:10060000002B0AD000F004FB00BF00F029FB0346DA
:1006100083F00103DBB2002BF7D17B68DB78002B82
:1006200009D17B689B7983F00103DBB2002B17D0E3
:1006300000F03AFB14E000F027FB7B6899887B68A8
:10064000DA787B685B781D467B681B781C467B6884
:100650009B780093084611462A46234600F034FB57
:100660007B68DB68B3F5803F03D14FF4803000F046
:1006700055F8FFF723FE0837BD46B0BD80B485B0FE
:1006800000AF78607B681B0FFB607B6823F07043D2
:10069000BB60FA6813465B0013449B001A46044B88
:1006A0001344BA681A601437BD465DF8047B70477E
:1006B0001444005080B485B000AF78607B681B0F95
:1006C000FB607B6823F07043BB60FA6813465B00F5
:1006D00013449B001A46084B13441A68BB68134026
:1006E000002B14BF01230023DBB218461437BD468C
:1006F0005DF8047B704700BF0C44005080B500AF2C
:10070000FFF7ECFE0246044B5B6903F0010322FA9B
:1007100003F3184680BD00BF0046005080B483B08C
:1007200000AF78600649064BDB6823F480327B68B3
:100730001343CB600C37BD465DF8047B704700BFA8
:100740000046005080B483B000AF78600649064B85
:100750009B6923F480327B6813438B610C37BD4661
:100760005DF8047B704700BF0046005080B483B042
:1007700000AF78600649064B5B6A23F440327B6821
:1007800013434B620C37BD465DF8047B704700BFD6
:100790000046005080B483B000AF0346FB80FB8866
:1007A000002B08D10A4A0A4BDB6823F4807323F03C
:1007B0000103D36007E0064A054BDB6843F480730E
:1007C00043F00103D3600C37BD465DF8047B7047EE
:1007D0001047005080B483B000AF0346FB7100BFE8
:1007E000094BD3F8C43003F00803002BF8D10749B4
:1007F000064BDB6823F04002FB791343CB600C37D8
:10080000BD465DF8047B7047004000500043005037
:1008100080B483B000AF0346FB7100BF094BD3F82F
:10082000C43003F00803002BF8D10749064BDB68FE
:1008300023F08002FB791343CB600C37BD465DF893
:10084000047B7047004000500043005080B483B0E8
:1008500000AF78600649064BDB6823F0FF027B6837
:10086000013B1343CB600C37BD465DF8047B7047FA
:100870000046005080B483B000AF78600649064B54
:100880001B6A23F001027B68013B13430B620C37A8
:10089000BD465DF8047B70470046005080B483B0CD
:1008A00000AF78600649064B1B6923F001027B68A4
:1008B000013B13430B610C37BD465DF8047B704769
:1008C0000046005080B483B000AF78600649064B04
:1008D0005B6923F001027B68013B13434B610C37DA
:1008E000BD465DF8047B70470046005080B483B07D
:1008F00000AF78600649064B9B6923F007027B68CE
:10090000013B13438B610C37BD465DF8047B704798
:100910000046005080B483B000AF78600649064BB3
:10092000DB6923F03F027B68013B1343CB610C374B
:10093000BD465DF8047B70470046005080B483B02C
:1009400000AF78600649064B5B6A23F0FF027B68C4
:10095000013B13434B620C37BD465DF8047B704787
:100960000046005080B483B000AF0346FB71044AD8
:10097000FB7953600C37BD465DF8047B704700BFC0
:100980000046005080B485B000AF78607B681B0FD4
:10099000FB607B6823F07043BB60FA6813465B0022
:1009A00013449B001A46044B1344BA681A60143768
:1009B000BD465DF8047B70474846005080B485B062
:1009C00000AF78607B681B0FFB607B6823F070438F
:1009D000BB60FA6813465B0013449B001A46084B41
:1009E00013441A68BB681340002B14BF0123002373
:1009F000DBB218461437BD465DF8047B704700BF74
:100A00004046005080B400AF054A054B5B6923F4B3
:100A1000803323F002035361BD465DF8047B7047C9
:100A20001047005080B483B000AF78603960284A26
:100A3000274B5B6943F00103536100BF244B1B69E3
:100A400003F00103002BF9D0214A214B5B6943F0ED
:100A5000100353611E493B68013B1A027B68013B4E
:100A60001B0613434B611A4A194B5B6943F0400361
:100A70005361174A164B5B6923F010035361144A04
:100A8000134B5B6943F48023536100BF104B1B6918
:100A900003F00403002BF9D00D4A0D4B5B6923F0E2
:100AA0000103536100BF0A4B1B6903F00103002BD4
:100AB000F9D1074A064B5B6923F040035361054BAC
:100AC0000822DA600C37BD465DF8047B704700BF32
:100AD000104700506041005080B582B000AF03461F
:100AE000FB710F4A0E4B5B6843F480135360FB7934
:100AF000012B0ED10A4A0A4B5B6823F48013536022
:100B00006420FFF703FD064A054B5B6843F40023AE
:100B100053606420FFF7FAFC0837BD4680BD00BF74
:100B20001047005080B400AF124B1B6803F0010364
:100B3000002B09D10F4B01225A6000BF0D4B1B68DF
:100B400003F00103002BF9D00B4B1B6803F4007377
:100B5000002B0AD0084B4FF400729A6000BF064B7E
:100B60001B6803F40073002BF9D1BD465DF8047BCC
:100B7000704700BF004200500044005080B400AFF6
:100B8000064B1B6803F00803002B0CBF0123002356
:100B9000DBB21846BD465DF8047B70470043005049
:100BA00080B500AF4FF40000FFF7DEFC174A174B8B
:100BB000DB6923F03003D36100BFFFF7C9FC0346B4
:100BC00003F40003002BF8D04FF40030FFF7CCFC07
:100BD0000E4B08225A6000BFFFF7BAFC034603F42D
:100BE0000033002BF8D04FF40020FFF7BDFC074A7C
:100BF000064BDB6843F00803D36000BFFFF7A8FC97
:100C0000034603F40023002BF8D080BD00430050BE
:100C1000B0B500AF0F4A0F4B5B6823F480335360CD
:100C20000D4D0D4B5B6823F4702424F0300401F06B
:100C300011FF0246094BA3FB02231B0D013B1B04C2
:100C400023436B60034A034B5B6823F40033536018
:100C5000B0BD00BF10470050004700506BCA5F6B2B
:100C600080B400AF074B1B6803F46073B3F5607F7B
:100C70000CBF01230023DBB21846BD465DF8047BA0
:100C8000704700BF1047005080B400AF054A054BC5
:100C90005B6823F4803323F002035360BD465DF8A4
:100CA000047B70471047005080B400AF054A054BE5
:100CB0005B6843F4803343F002035360BD465DF844
:100CC000047B70471047005080B586B000AFBA6013
:100CD0007B600346FB810B467B73FB891846FFF75D
:100CE00059FD7B7B012B40F08B80FB89002B09D1C8
:100CF00001F0B0FE0246544BA3FB02239B0C9B0564
:100D00007B6102E04FF0C0637B617B697A6802FB24
:100D100003F2BB68B2FBF3F37B617B694B4AA2FB36
:100D200003231B099B0D3B61494A494B5B6843F018
:100D30000103536000BF464B1B6803F00103002B07
:100D4000F9D0434A424B5B6843F01003536040497B
:100D50003F4B9A683F4B13407A68013A12021A439C
:100D60003B69013B1B041A43BB68013B1B06134351
:100D70008B60374A364B5B6843F040035360344A1C
:100D8000334B5B6823F010035360314A304B5B6890
:100D900043F48023536000BF2D4B1B6803F0040312
:100DA000002BF9D02A4A2A4B5B6823F001035360D9
:100DB00000BF274B1B6803F00103002BF9D17B69AF
:100DC000254AA2FB03235B099B0D3B613A6A3B6901
:100DD0009A4202D2386900F045F87B695B081F4AE5
:100DE000A2FB03235B099B0D3B613A6A3B699A4274
:100DF00002D2386900F036F8386A00F033F81CE0A7
:100E00001349134B9B6823F07F023B6A013B13435A
:100E10008B6000BF0E4B1B6803F01003002BF9D052
:100E20000B4A0B4B5B6843F00103536000BF084B58
:100E30001B6803F00103002BF9D0094B0522DA608F
:100E40001837BD4680BD00BF83DE1B43ABAAAAAAEC
:100E500010470050FF8080F089888888B7600BB603
:100E60006041005080B582B000AF78600B490B4BF9
:100E70009B6823F4FE027B68013B1B0413438B60D9
:100E800000BF064B1B6803F02003002BF9D0322073
:100E9000FFF73CFB0837BD4680BD00BF1047005040
:100EA00080B483B000AF78607B684FF48072DA6002
:100EB0000C37BD465DF8047B704700BF80B582B03B
:100EC00000AF78607B68104A934203D10420FFF79B
:100ED000D5FB16E07B680D4A934203D10820FFF74B
:100EE000CDFB0EE07B680A4A934203D11020FFF746
:100EF000C5FB06E07B68074A934202D10648FFF72C
:100F0000BDFB0837BD4680BD00C000400000014069
:100F100000400140004000480100001080B582B050
:100F200000AF78607B68104A934203D10420FFF73A
:100F300029FD16E07B680D4A934203D10820FFF794
:100F400021FD0EE07B680A4A934203D11020FFF78F
:100F500019FD06E07B68074A934202D10648FFF775
:100F600011FD0837BD4680BD00C0004000000140B3
:100F700000400140004000480100001080B582B0F0
:100F800000AF78601020FFF7EDFC7868FFF7C6FF30
:100F90007868FFF793FF0837BD4680BD80B584B001
:100FA00000AF78600B46FB707868FFF7E7FF786862
:100FB000FFF776FF7B681B68FB60FB6823F4404308
:100FC000FB60FB789B03FA681343FB607B68FA685D
:100FD0001A601037BD4680BD80B483B000AF786022
:100FE00039603B681A687B685A613B685B79C3F378
:100FF0004013DBB21A057B685A603B681B79C3F368
:101000000303DBB21A467B685A623B685B79C3F321
:101010000303DBB21A467B681A623B685B79C3F351
:101020000013DBB21A467B689A613B681B79C3F3F5
:101030000313DBB21A467B68DA620C37BD465DF8F3
:10104000047B704780B487B000AF78600B46FB70BC
:101050001346BB70FB780B2B36D801A252F823F055
:1010600091100008911000089B1000089B100008C8
:10107000C9100008C9100008C9100008C9100008EC
:10108000A5100008B1100008BD100008BD10000830
:1010900003233B6100237B611BE00C233B610223A4
:1010A0007B6116E04FF440733B6108237B6110E0E5
:1010B0004FF440633B610A237B610AE04FF44053E5
:1010C0003B610C237B6104E000233B6100237B61D7
:1010D00000BF3B69002B13D07B68D3F8A830FB60BE
:1010E0003B69DB43FA681340FB60BA787B6902FA1C
:1010F00003F3FA681343FB607B68FA68C3F8A8201F
:101100001C37BD465DF8047B704700BF80B483B0D8
:1011100000AF78600B46FB701346BB707B685A6F5C
:10112000FB785B00194603238B40DB431A407B6846
:101130005A677B685A6FBB78F97849008B401A432D
:101140007B685A670C37BD465DF8047B704700BF6B
:1011500080B483B000AF78607B689B6BDBB223F018
:101160007F03DBB218460C37BD465DF8047B704741
:1011700080B483B000AF786039607B683A68DA6425
:101180000C37BD465DF8047B704700BF80B586B064
:1011900000AFF860B9601346FB7110237B61F868FB
:1011A00000F0BAF8BB681B7A002B02D0BB681B7A30
:1011B0007B61FB79002B14D0BB681B79002B09D015
:1011C000BB681B681A467B69F86811461A4600F02E
:1011D00061F906E0BB681B68F86819467A6900F097
:1011E000E7F8BB68DB79013B5A007B695B08013398
:1011F0001B02134343F4403343F00103FA68D36303
:10120000BB685B79013B1B0643F48172FB685A6340
:10121000BB689B79002B09D0FB685A6BBB689B7934
:10122000013B1B041A43FB685A6308E0FB685A6BD6
:10123000BB685B79013B1B041A43FB685A63FB687C
:101240004FF4A0629A63FB684FF0FF32DA64BB6828
:101250005B891A46FB681A641837BD4680BD00BF1B
:1012600080B582B000AF78600B467B807B68D3F896
:10127000083103F0E063002B10D100BF7868FFF75E
:1012800067FF0346802BF9D078684FF40051FFF7D1
:101290006FFF7A887B68C3F8802003E07A887B68D8
:1012A000C3F880210837BD4680BD00BF80B485B03B
:1012B00000AF78607B68D3F80C3103F0E063002B5B
:1012C00003D17B685B6DFB8103E07B68D3F81C3145
:1012D000FB81FB8918461437BD465DF8047B7047D7
:1012E00080B483B000AF786039607B681A6C3B686B
:1012F00003F4FE33DB431A407B681A647B68DA6BC5
:101300003B6803F0F803DB431A407B68DA630C3771
:10131000BD465DF8047B704780B582B000AF786051
:101320007B681A4A934203D07B68194A934203D1DF
:10133000184800F063F916E07B68174A934203D01F
:101340007B68164A934203D1154800F057F90AE02A
:101350007B68144A934203D07B68134A934202D1BC
:10136000124800F04BF97B680322DA6000BF7B680B
:10137000DB6803F00103002BF9D07B681B6C23F0C2
:101380000F027B681A640837BD4680BD0000034029
:101390000002034008000340000002480002024827
:1013A0000800024800400248004202480840024843
:1013B00080B58EB000AFF860B9607A60BB68632B0F
:1013C0005AD97B68002B57D0FFF798F902462F4B6C
:1013D000A3FB02235B093B62BB682C4AA2FB0323ED
:1013E0005B09BB604FF48063FB620123BB6240F288
:1013F000FF337B624FF480633B6322E03B6A3A6BCE
:1014000002FB03F2BB68796801FB03F3B2FBF3F361
:10141000FB61FB699B0ABB61FB69C3F309037B6149
:10142000BB69B3F5806F09D87A697B6A9A4205D2A5
:101430007B697B62BB69BB623B6BFB623B6B013BC5
:101440003B633B6B002BD9D1FB6A013B43F4004269
:10145000FB681A61FB685A690D4B13407A68013AC0
:1014600092021A43BB6A013B1B041A43FB685A6190
:10147000002387F8373002E0012387F8373097F8E8
:10148000373018463837BD4680BD00BF1F85EB5149
:10149000EF8000FC80B58CB000AFF860B9607A6076
:1014A000FFF72CF903463B62BB687A6802FB03F343
:1014B000FB610123FB623A6AFB699A425FDD3A6A8B
:1014C000FB6992FBF3F3BB6210E0FB6A0133FB6242
:1014D000BB687A6802FB03F31A46FB6A03FB02F35C
:1014E000FB613A6AFB6992FBF3F3BB62BB6A40F2B1
:1014F000FE329342E9D83A6A7B68B96A01FB03F38A
:10150000F96A01FB03F3B2FBF3F3BB613A6ABB6A0E
:101510000133796801FB03F3F96A01FB03F3B2FBC2
:10152000F3F37B61BA687B69D31A83EAE372A2EBB7
:10153000E372B968BB69CB1A002BB8BF5B429A4211
:1015400002DABB6A0133BB62BB6AC3F58063BB626C
:10155000BB6A43F48042FB681A61FB685A690C4B12
:1015600013407A68013A92021A43FB6A013B1B045A
:101570001A43FB685A61002387F8273002E00123F1
:1015800087F8273097F8273018463037BD4680BD9A
:10159000EF8000FC80B485B000AFF8600B467A6045
:1015A000FB72FB68D3F80C3123F47C527B681B027E
:1015B0001A43FB68C3F80C211437BD465DF8047B61
:1015C000704700BF80B485B000AFF8600B467A600A
:1015D000FB72FB689A69FB7A072101FA03F3DB438C
:1015E0001A40FB7A796801FA03F31A43FB689A619F
:1015F0001437BD465DF8047B704700BF80B582B0EC
:1016000000AF78607B68284A934218D14FF400609D
:10161000FFF7B8F900BF4FF40060FFF7CFF90346BA
:10162000002BF8D14FF40060FFF728F800BF4FF40B
:101630000060FFF73FF80346002BF8D130E07B68ED
:101640001A4A934214D11A48FFF79CF900BF184870
:10165000FFF7B4F90346002BF9D11548FFF70EF850
:1016600000BF1348FFF726F80346002BF9D117E017
:101670007B68104A934213D10F48FFF783F900BFEC
:101680000D48FFF79BF90346002BF9D10A48FEF7F6
:10169000F5FF00BF0848FFF70DF80346002BF9D10E
:1016A0000837BD4680BD00BF08000340080002485F
:1016B00080000010084002480001001080B584B08E
:1016C00000AF7860144B1B68002B02D1124B134AF9
:1016D0001A60114B1B68FB607B68033323F0030324
:1016E0007B600D4B1A687B6813440D4A934207D206
:1016F000094B1A687B681344074A1360FB6806E0CD
:1017000002F09EF802460C2313604FF0FF33184698
:101710001037BD4680BD00BF008AFE1F00000020BC
:10172000C0FF032080B400AFBD465DF8047B704766
:1017300080B483B000AF786039607B681A6C3B6816
:101740001A437B681A640C37BD465DF8047B70470A
:1017500080B483B000AF786039607B681A6C3B68F6
:10176000DB431A407B681A640C37BD465DF8047B86
:10177000704700BF80B483B000AF78607B689B6B1C
:10178000DBB223F07F03DBB218460C37BD465DF8B1
:10179000047B704780B483B000AF786039603B68E9
:1017A0004FF480329A407B689A660C37BD465DF8EC
:1017B000047B704780B483B000AF786039607B6889
:1017C000D3F808213B681A437B68C3F808210C371B
:1017D000BD465DF8047B704780B483B000AF78608D
:1017E00039607B68D3F808213B68DB431A407B688B
:1017F000C3F808210C37BD465DF8047B704700BF75
:1018000080B483B000AF78607B684FF40042C3F8C7
:1018100018210C37BD465DF8047B704780B483B057
:1018200000AF78607B68D3F8143103F48053002B49
:1018300014BF01230023DBB218460C37BD465DF808
:10184000047B704780B483B000AF78607B68D3F8C6
:10185000143103F40063002B14BF01230023DBB217
:1018600018460C37BD465DF8047B704780B483B0E2
:1018700000AF786039607B68D3F80C213B681A436D
:101880007B68C3F80C210C37BD465DF8047B7047BC
:1018900080B483B000AF786039607B68D3F80C21E6
:1018A0003B68DB431A407B68C3F80C210C37BD460C
:1018B0005DF8047B704700BF80B483B000AF7860F0
:1018C0007B684FF48042C3F818210C37BD465DF8A1
:1018D000047B704780B483B000AF78607B68D3F836
:1018E000143103F00803002B14BF01230023DBB2E3
:1018F00018460C37BD465DF8047B704780B584B050
:1019000000AF78600023FB737B685B685B68984777
:101910000346FB73FB7B18461037BD4680BD00BFF6
:1019200080B586B000AFF860B9607A600423FB75BB
:10193000FB685B6893F82930002B00D007E0F8685B
:10194000B9687A6800F056F80346FB7500BFFB7D66
:1019500018461837BD4680BD80B586B000AFF86028
:10196000B9607A600423FB75FB685B6893F82A30E2
:10197000002B00D007E0F868B9687A6800F096F8A4
:101980000346FB7500BFFB7D18461837BD4680BD7A
:1019900080B584B000AF78600023FB737B689B68E0
:1019A00000225A767B689B6800225A607B685B68DD
:1019B00093F82A30002B15D17B685B6893F82C30A4
:1019C000002B07D07B681B6818464FF0C041FFF71B
:1019D0005FFF0AE07B681B6818464FF44041FFF741
:1019E0007FFC02E00423FB7300BFFB7B184610372B
:1019F000BD4680BD80B586B000AFF860B9607A6042
:101A00000423FB75FB689B683B61FB685B6893F88C
:101A10002930002B44D10223FB753B691B7EDBB2CE
:101A200083F00103DBB2002B3AD0BB68002B35D02A
:101A30007B68002B32D03B69BA681A603B697A68D0
:101A40009A603B690022DA603B6901221A76FB68E2
:101A50005B6893F82B30002B0CD0FB681B68184692
:101A6000FFF7CEFEFB681B6818464FF08041FFF77A
:101A7000A1FE06E0FB681B6818464FF40051FFF713
:101A800057FE0023FB75FB681A68FB685B6893F8D8
:101A90002D3010461946FFF77DFE01E00323FB754C
:101AA000FB7D18461837BD4680BD00BF80B586B0A7
:101AB00000AFF860B9607A600423FB75FB689B682F
:101AC0003B61FB685B6893F82A30002B3ED1022310
:101AD000FB753B695B7EDBB283F00103DBB2002B5D
:101AE00034D0BB68002B2FD07B68002B2CD03B69F7
:101AF000BA685A603B697A681A613B6901225A7672
:101B00003B6900225A61FB685B6893F82C30002B1C
:101B100010D0FB681B681846FFF7CEFEF86879689E
:101B200000F030F9FB681B6818464FF0C041FFF722
:101B30009DFE06E0FB681B6818464FF44041FFF726
:101B4000F7FD0023FB7501E00323FB75FB7D1846C1
:101B50001837BD4680BD00BF80B584B000AF786047
:101B60007B689B68FB60FB68DA68FB689B689A424D
:101B700040D27B685B6893F82B30002B27D01AE0AB
:101B8000FB68DA68FB689B689A4212D27B68196826
:101B9000FB681A68FB68DB6813441B789BB2084635
:101BA0001946FFF75DFBFB68DB685A1CFB68DA60CF
:101BB00001E000BF53E07B681B681846FFF72EFE6C
:101BC000034683F00103DBB2002BD9D147E07B68E9
:101BD0001968FB681A68FB68DB6813441B789BB2C2
:101BE00008461946FFF73CFBFB68DB685A1CFB689C
:101BF000DA6034E07B681B681846FFF723FE034673
:101C0000002B2CD07B685B6893F82B30002B07D01F
:101C10007B681B6818464FF08041FFF7DDFD06E04A
:101C20007B681B6818464FF40051FFF791FD00BF19
:101C30007B681B681846FFF79DFD0346802BF7D095
:101C4000FB6800221A76FB6800221A607B685B68DA
:101C50009B68002B03D07B685B689B6898471037B4
:101C6000BD4680BD90B585B000AF78607B689B684D
:101C7000FB607B685B6893F82C30002B4ED032E021
:101C8000FB685A69FB681B699A4211D2FB685A6863
:101C9000FB685B69D4187B681B681846FFF706FB76
:101CA0000346DBB22370FB685B695A1CFB685A6110
:101CB000FB685A69FB681B699A4214D1FB680022D1
:101CC0005A767B681B6818464FF0C041FFF7E0FD6D
:101CD0007B685B68DB68002B04D07B685B68DB6833
:101CE00098470BE00AE07B681B681846FFF7F2FD97
:101CF000034683F00103DBB2002BC1D1FB685A69B4
:101D0000FB681B699A423AD2FB681A69FB685B69F7
:101D1000D31A7868194600F035F830E0FB685A6944
:101D2000FB681B699A4211D2FB685A68FB685B69C1
:101D3000D4187B681B681846FFF7B8FA0346DBB275
:101D40002370FB685B695A1CFB685A61FB685A691F
:101D5000FB681B699A4212D1FB6800225A767B68A5
:101D60001B6818464FF44041FFF7F2FC7B685B6844
:101D7000DB68002B03D07B685B68DB68984714370F
:101D8000BD4690BD80B584B000AF78603960002357
:101D9000FB607B685B6893F82C301A460123934004
:101DA000BB603A68BB689A4203D23B68013BFB6068
:101DB00002E0BB68013BFB607B681A687B685B687C
:101DC00093F82C3010461946FA68FFF7E3FB1037FA
:101DD000BD4680BD80B400AF044BDB6803F4E06314
:101DE0001B0A1846BD465DF8047B704700ED00E015
:101DF00080B483B000AF0346FB7197F90730002B26
:101E00000BDB084997F907305B09FA7902F01F02EA
:101E1000012000FA02F241F823200C37BD465DF89C
:101E2000047B704700E100E080B483B000AF03465C
:101E30003960FB7197F90730002B0ADB0D4997F9E0
:101E400007303A68D2B29200D2B20B4483F8002332
:101E50000AE00949FB7903F00F03043B3A68D2B268
:101E60009200D2B20B441A760C37BD465DF8047B63
:101E7000704700BF00E100E000ED00E080B489B0F1
:101E800000AFF860B9607A60FB6803F00703FB619C
:101E9000FB69C3F10703062B28BF0623BB61FB695F
:101EA0000633062B02D9FB69013B00E000237B616E
:101EB000BB69012202FA03F35A1EBB681A407B6910
:101EC0009A407B69012101FA03F3591E7B680B409C
:101ED000134318462437BD465DF8047B704700BFA6
:101EE00080B483B000AF78600B46FB701346BB70C4
:101EF000F878FB787A6806339B0013445B6823F01C
:101F00000702BB781A437968831D9B000B445A6013
:101F10000C37BD465DF8047B704700BF80B582B0CA
:101F200000AF78603960786839680122FFF72EF9D0
:101F30000837BD4680BD00BF80B483B000AF786075
:101F40007B681B6C23F00F0343F002027B681A646A
:101F50000C37BD465DF8047B704700BF80B582B08A
:101F600000AF0023FB7127480021274AFEF710FA33
:101F700026482749FFF7D2FF244800210322FFF714
:101F8000AFFF2248FFF7D8FF1E480121214AFEF784
:101F9000FFF91E4804210322FFF714FB1B48082108
:101FA0000522FFF70FFB19480C210522FFF70AFB5A
:101FB000164810210022FFF705FBFFF70BFF034631
:101FC00018463E210022FFF759FF034657201946C5
:101FD000FFF72AFF5720FFF70BFFFFF7FBFE034633
:101FE00018463F210022FFF749FF034659201946B2
:101FF000FFF71AFF5920FFF7FBFEFB791846083759
:10200000BD4680BD00850248DC600008000003403A
:10201000886000089460000880B500AF0148FFF7B1
:102020009BFD80BD0088FE1F80B500AF0148FFF713
:1020300019FE80BD0088FE1F80B483B000AF7860B9
:102040000B46FB70FB7801229A407B68DA600C3704
:10205000BD465DF8047B704780B483B000AF786004
:102060007B680122DA600C37BD465DF8047B70475F
:1020700080B483B000AF78607B6802221A610C37AD
:10208000BD465DF8047B704780B483B000AF7860D4
:102090000B467B807A887B685A630C37BD465DF8B7
:1020A000047B704780B483B000AF78600B467B80C0
:1020B0007A887B68DA630C37BD465DF8047B70472D
:1020C00080B483B000AF786039607B683A681A6189
:1020D0000C37BD465DF8047B704700BF80B483B009
:1020E00000AF78600B46FB707B68D3F8A420FB78C8
:1020F000012101FA03F31A437B68C3F8A4200C37CB
:10210000BD465DF8047B704780B584B000AF786051
:102110000023FB737B6893F8263083F00103DBB266
:10212000002B09D07B6893F82130002B04D178680C
:1021300000F008F80346FB73FB7B18461037BD46DA
:1021400080BD00BF80B584B000AF78607B681B693C
:10215000184600F0BBFB0346FB737B681B699A685B
:102160007B681B7E10461946FFF766FF7B685A693D
:102170007B68DB6910461946FEF72EFF786800F091
:102180002DF87B6893F82530002B0FD07B685A69B7
:102190007B6893F82030104600211A46FEF752FF64
:1021A0007B685B6918460021FFF798FF7B685B69D5
:1021B0001846FFF75DFF7B68012283F826207B68C5
:1021C00093F82430002B04D07B685B691846FFF736
:1021D00043FFFB7B18461037BD4680BD80B582B0FB
:1021E00000AF78607B685A697B685B8C1046194643
:1021F000FFF74AFF7B685B6918460021FFF752FF33
:102200007B681B699A687B68DB6810461946FFF794
:1022100057FF0837BD4680BD80B400AF044BDB6874
:1022200003F4E0631B0A1846BD465DF8047B704763
:1022300000ED00E080B483B000AF03463960FB716D
:1022400097F90730002B0ADB0D4997F907303A68F8
:10225000D2B29200D2B20B4483F800230AE00949BB
:10226000FB7903F00F03043B3A68D2B29200D2B27A
:102270000B441A760C37BD465DF8047B704700BFEF
:1022800000E100E000ED00E080B489B000AFF8604C
:10229000B9607A60FB6803F00703FB61FB69C3F177
:1022A0000703062B28BF0623BB61FB690633062BF9
:1022B00002D9FB69013B00E000237B61BB6901227D
:1022C00002FA03F35A1EBB681A407B699A407B6985
:1022D000012101FA03F3591E7B680B401343184692
:1022E0002437BD465DF8047B704700BF80B582B0DF
:1022F00000AF78607B68013BB3F1807F01D301239D
:102300000FE00A4A7B68013B53604FF0FF303F21EA
:10231000FFF790FF054B00229A60044B07221A60DA
:10232000002318460837BD4680BD00BF10E000E01E
:1023300090B486B000AF78600023FB736B497A6875
:102340001346DB0013449B000B4418331B68BB602F
:10235000674B1B68002B09D17A681346DB001344D6
:102360009B00624A1344624A1360BBE0604B1B68E7
:102370007B61BB683B61ABE07B699B691A463B694B
:102380009B1A3B613B69002B7ADC7B695B68002B05
:1023900026D07B6959687A681346DB0013449B009A
:1023A000524A13440B607B69596850487A68134657
:1023B000DB0013449B00034459604C497A68134680
:1023C000DB0013449B000B447A691A607A68134659
:1023D000DB0013449B00454A1A447B695A601CE0A9
:1023E000434B196841487A681346DB0013449B004D
:1023F000034419603E4B19687A681346DB001344A6
:102400009B003A4A13444B607A681346DB0013443E
:102410009B00364A1344364A136034497A6813469F
:10242000DB0013449B000B441B689A693B69D1187D
:102430002E487A681346DB0013449B00034418338C
:1024400019602A497A681346DB0013449B000B4449
:10245000196826487A681346DB0013449B0003443E
:102460001B689869214C7A681346DB0013449B0073
:10247000234418331B68C31A8B610123FB7324E0C8
:102480003B69002B21DD7B691B68002B1DD117499F
:102490007A681346DB0013449B000B447A695A6048
:1024A0007A681346DB0013449B00104A1A447B6988
:1024B0001A6039690D487A681346DB0013449B00A3
:1024C0000344183319600123FB737B691B687B612C
:1024D0007B69002B06D0FB7B83F00103DBB2002B72
:1024E0007FF44AAF1837BD4690BC7047488AFE1F3C
:1024F000208AFE1F80B485B000AF78607A681346EA
:10250000DB0013449B00294A1344FB60FB685B68B3
:10251000002B07D1FB681B68002B03D1244B002242
:102520001A603DE0FB685B68002B14D1FB681B68F8
:102530001F4A13601E4B1B6800225A601C4B1B680D
:102540001B4A12689169FA6892690A449A61FB68A9
:1025500000221A6024E0FB681B68002B07D1FB688F
:102560005B6800221A60FB6800225A6018E0FB6872
:102570005B68FA6812681A60FB681B68FA68526840
:102580005A60FB681B68FA6812689169FA68926978
:102590000A449A61FB6800221A60FB6800225A60B4
:1025A0001437BD465DF8047B704700BF488AFE1FA4
:1025B000208AFE1F80B582B000AF2F4B1B687B6066
:1025C00050E07B6893F82030002B13D07B685B6968
:1025D0001846FFF78FFF7B6800225A737B685B69A0
:1025E0001A4601239340DA43244B1B681340234AC5
:1025F000136034E07B681B7B002B12D17B685B7B14
:10260000012B2CD17B685B691846FFF773FF7B6851
:1026100002225A737B689B687A6812691046984751
:102620001DE07B681B7B012B18D17B685B7B012B3A
:1026300015D17B685B691846FFF75CFF7B68DA6938
:102640007B689A617B685B691846FFF771FE7B685F
:102650009B687A6812691046984700E009E0064BCB
:102660001B687B607B68002B03D07B689B69002B19
:10267000A7D00837BD4680BD208AFE1F248AFE1FD2
:1026800080B582B000AF0E4B1B687B600D4B1B68A2
:1026900001330C4A13607B68002B0ED07B689B696A
:1026A000012B05D97B689B695A1E7B689A6104E0FF
:1026B0007B6800229A61FFF77DFF0837BD4680BD29
:1026C000208AFE1F288AFE1F80B584B000AF786084
:1026D0000023FB737B681B7883F00103DBB2002BC4
:1026E00020D0134B00221A601248FFF7FFFD03466B
:1026F000FB73FB7B012B15D0FFF78EFD03461846BD
:102700003F210022FFF7C0FD03464FF0FF3019467E
:10271000FFF790FD084B00221A607B6801221A70B7
:102720000023FB73FB7B18461037BD4680BD00BFFE
:10273000208AFE1F80320200248AFE1F80B400AF70
:10274000044BDB6803F4E0631B0A1846BD465DF8E2
:10275000047B704700ED00E080B483B000AF034617
:10276000FB7197F90730002B0BDB084997F907300D
:102770005B09FA7902F01F02012000FA02F241F827
:1027800023200C37BD465DF8047B704700E100E074
:1027900080B483B000AF03463960FB7197F907300E
:1027A000002B0ADB0D4997F907303A68D2B2920044
:1027B000D2B20B4483F800230AE00949FB7903F005
:1027C0000F03043B3A68D2B29200D2B20B441A769D
:1027D0000C37BD465DF8047B704700BF00E100E0A8
:1027E00000ED00E080B489B000AFF860B9607A60B5
:1027F000FB6803F00703FB61FB69C3F10703062BCA
:1028000028BF0623BB61FB690633062B02D9FB698F
:10281000013B00E000237B61BB69012202FA03F364
:102820005A1EBB681A407B699A407B69012101FAF4
:1028300003F3591E7B680B40134318462437BD46EB
:102840005DF8047B704700BF80B582B000AF786050
:102850007B681B785BB21846FFF77EFF0837BD46E2
:1028600080BD00BF90B583B000AF78607B681C78F6
:10287000FFF764FF01467B685B781A467B689B78AC
:10288000084611461A46FFF7ADFF024663B21846E6
:102890001146FFF77DFF7B68DB78002B02D078685C
:1028A000FFF7D2FF002318460C37BD4690BD00BF8E
:1028B00080B483B000AF78607B684FF48072DA60D8
:1028C0000C37BD465DF8047B704700BF80B582B011
:1028D00000AF78607B685B7B83F00103DBB2002B89
:1028E0000FD07B689A687B681B7B10461946FEF701
:1028F00055FB7B689B681846FFF7DAFF7B6801226F
:102900005A73002318460837BD4680BD80B582B093
:1029100000AF78607B6819687B681A7C7B68043339
:10292000084611461A46FDF733FD7B6819687B6837
:102930001A7C7B685B7C084611461A46FEF7E6FB6C
:10294000002318460837BD4680BD00BF80B485B05F
:1029500000AF78607B6803F00703FB600C4BDB681B
:10296000BB60BA684FF6FF031340BB60FB681A02F6
:10297000BB68134343F0BF6343F40033BB60044AB6
:10298000BB68D3601437BD465DF8047B704700BF59
:1029900000ED00E080B582B000AF0120FFF7D6FF68
:1029A00072B6214B214A9A60BFF34F8F62B61E4A1E
:1029B0001D4BD3F8883043F47003C2F888301C4BA9
:1029C00003F5805314331B687B607B6823F00F038F
:1029D0007B607B6843F004037B60154B03F58053F9
:1029E00014337A681A60104A0F4B5B6923F01003A6
:1029F00053610D4A0C4B5B6923F0080353610A4A8B
:102A0000094B5B6A23F480335362074A064B5B6AC7
:102A100023F400335362044A034B5B6A23F480239C
:102A200053620837BD4680BD00ED00E0000000089D
:102A30000010005880B485B000AF78600023FB73AD
:102A40007B6801221A70FB7B18461437BD465DF87F
:102A5000047B704780B400AF024B1846BD465DF85A
:102A6000047B7047001BB700B0B586B000AF134BB6
:102A70003C1D1D460FCD0FC42B6823603B1D18461F
:102A8000FDF780FD0020FDF7A5FE0020FDF75AFEB2
:102A90000420FDF72BFFFDF7B5FF01202021FDF7F6
:102AA000C1FF0020FDF762FE0120FDF747FF012076
:102AB000FDF730FF1837BD46B0BD00BF14610008F8
:102AC00080B582B000AF0023FB711D48FFF7B2FF55
:102AD0000346FB71FB79002B04D11A48FFF716FF60
:102AE0000346FB71FB79002B04D11748FFF70CFB61
:102AF0000346FB71FB79002B04D11448FFF7B2FEAB
:102B00000346FB71FB79002B04D11148FEF7F6FE5A
:102B10000346FB71FB79002B04D10E48FFF7F6FE4C
:102B20000346FB71FB79002B04D10B48FFF7CCFD6A
:102B30000346FB71FB7918460837BD4680BD00BFD0
:102B4000308AFE1FEC6000081488FE1FE860000851
:102B50000088FE1F006100082C8AFE1F80B500AFB0
:102B600001F012FB0246094B83FB02135911D317E4
:102B7000CB1A642101FB03F3D31A184600F0FAFDC7
:102B800002460B461046194680BD00BF1F85EB511B
:102B900080B483B000AF0346FB80FA88034B1A80F1
:102BA0000C37BD465DF8047B704700BF368AFE1FB8
:102BB00080B400AF074B1B78002B04D0054B0022DC
:102BC0001A70012300E000231846BD465DF8047B1F
:102BD000704700BF388AFE1F80B400AF0B4B012244
:102BE0001A800B4B1B88002B0CD0094B1B88013B18
:102BF0009AB2074B1A80064B1B88002B02D1054B5B
:102C000001221A70BD465DF8047B7047348AFE1FAE
:102C1000368AFE1F388AFE1F80B400AF034B0122A4
:102C20001A70BD465DF8047B704700BF398AFE1FED
:102C300080B400AF034B01221A70BD465DF8047BDF
:102C4000704700BF3A8AFE1F80B584B002AFFFF71D
:102C500085FFC7E90001D7E90023CDE90023084833
:102C60004FF48071074A084B01F0F2FA07484FF41D
:102C70008071074A074B01F0EBFA0837BD4680BD6B
:102C80007097FE1F406600089888FE1F74A1FE1F03
:102C90008C660008B466000880B500AF05480021C6
:102CA00000F0E2FA044800F0DFFA044B01221A7047
:102CB00080BD00BFE4660008EC6600083B8AFE1F8A
:102CC00080B500AF0C480D4940F20E5201F0F2FA07
:102CD0000B48002100F0C8FA074801F01DFB03462D
:102CE0000548194600F0C0FA064800F0BDFA064B48
:102CF00002221A7080BD00BF7098FE1FF86600089F
:102D0000E4660008286100083B8AFE1F80B500AF1A
:102D10001248002100F0A8FA11480121114A00F0E0
:102D2000A3FA11480221032200F09EFA0C48032165
:102D30000E4A00F099FA0C480421FF2200F094FAA0
:102D400007480C210A4A00F08FFA07480D2101229A
:102D500000F08AFA074B03221A7080BDE46600086F
:102D600020670008346700083C67000850670008C7
:102D70005C6700083B8AFE1F80B500AF0748002152
:102D800000F072FA0648012100F06EFA00F01EFB16
:102D900000F01CFB034B04221A7080BDE46600089F
:102DA0006C6700083B8AFE1F80B500AF0948002110
:102DB00000F05AFA084800F057FA00F007FB0748FD
:102DC000074900F045FB0346012B02D0054B0522C5
:102DD0001A7080BDE46600087C6700086C8BFE1FDB
:102DE000886700083B8AFE1F80B500AF12480021AB
:102DF00000F03AFA11480121114A00F035FA114861
:102E0000022142F2B32200F02FFA0C4803210E4AAD
:102E100000F02AFA094804210C4A00F025FA094872
:102E20000721012200F020FA0948012100F01CFAD4
:102E3000084B06221A7080BDE466000894670008FB
:102E4000A8670008D0670008E4670008FC6700086E
:102E5000446800083B8AFE1F80B500AF0648002189
:102E600000F002FA05480649002200F0FDF9054B82
:102E700007221A7080BD00BFE46600085868000889
:102E8000706800083B8AFE1F80B582B002AFFFF772
:102E9000DBFE0948002100F0E7F9084B0093084BDE
:102EA0000193084800210022002300F0DDF9064BC1
:102EB00008221A70BD4680BDE4660008AC680008B0
:102EC00074A1FE1F8C6800083B8AFE1F80B500AF0E
:102ED0002248234901F028FA0246224B1A60214B6E
:102EE0001B68002B04D01F4B1B6809331D4A13605D
:102EF0001C4B1B6818461C4901F016FA02461B4B76
:102F00001A601A4B1B68002B27D0184B1B680F3315
:102F1000164A1360154B1B681846222101F0EEF982
:102F2000034600221A70114B1B68114811491A46BA
:102F300001F0C0F91048002100F096F90C4800F0AB
:102F400093F9084B1B6818460C4901F0EDF903464C
:102F5000002B02D10A4B09221A7080BD6C8BFE1F18
:102F6000DC680008688BFE1FE868000870A1FE1F7F
:102F70007098FE1FF8680008E466000858690008A9
:102F80003B8AFE1F80B500AF1E481F4901F0CCF9F7
:102F900002461E4B1A601D4B1B68002B04D01B4BB6
:102FA0001B680933194A1360184B1B6818461849E7
:102FB00001F0BAF90246174B1A60164B1B68002B3A
:102FC0001BD0144B1B680F33124A1360114B1B6844
:102FD0001846222101F092F9034600221A700D4B87
:102FE0001B680D48194601F065F90A4B1B680B4830
:102FF0000B491A460B4B01F05DF90B4B0A221A7074
:1030000080BD00BF6C8BFE1FDC680008688BFE1F54
:10301000686900086C8FFE1F4C88FE1FCC88FE1F5D
:10302000786900089888FE1F3B8AFE1F80B500AFB4
:103030000548002100F018F9044800F015F9044B88
:103040000B221A7080BD00BFE46600089869000872
:103050003B8AFE1F80B500AF1248002100F004F942
:1030600011480121114A00F0FFF81148022142F2F3
:10307000B32200F0F9F80C4803210E4A00F0F4F8EE
:10308000094804210C4A00F0EFF809480721012201
:1030900000F0EAF80948012100F0E6F8084B0C229C
:1030A0001A7080BDE4660008946700084C88FE1F13
:1030B000D06700089888FE1FCC88FE1F446800086F
:1030C0003B8AFE1F80B500AF0648002100F0CCF817
:1030D00005480649012200F0C7F8054B0D221A7079
:1030E00080BD00BFE466000858680008AC690008AD
:1030F0003B8AFE1F80B500AF0648002100F0B4F8FF
:1031000005480649012200F0AFF8054B0E221A705F
:1031100080BD00BFE466000858680008C469000864
:103120003B8AFE1F80B500AF0648002100F09CF8E6
:1031300005480649012200F097F8054B0F221A7046
:1031400080BD00BFE466000858680008EC6900080C
:103150003B8AFE1F80B500AFFFF776FD06480021D1
:1031600000F082F8054800F07FF80A20FFF710FD14
:10317000034B10221A7080BDE46600087097FE1F92
:103180003B8AFE1F80B500AFFFF712FD0346002B00
:1031900002D0024B0F221A7080BD00BF3B8AFE1F77
:1031A00080B500AF2F4B1B78102B58D801A252F8D6
:1031B00023F000BFF9310008FF3100080532000894
:1031C0000B32000811320008173200081D320008C7
:1031D00023320008293200082F3200083532000857
:1031E0003B32000841320008473200084D320008E7
:1031F0005332000859320008FFF74EFD30E0FFF768
:103200005FFD2DE0FFF782FD2AE0FFF7B5FD27E027
:10321000FFF7CAFD24E0FFF7E7FD21E0FFF71CFE02
:103220001EE0FFF731FE1BE0FFF750FE18E0FFF74E
:10323000A9FE15E0FFF7FAFE12E0FFF70BFF0FE023
:10324000FFF740FF0CE0FFF755FF09E0FFF76AFFCB
:1032500006E0FFF77FFF03E0FFF794FF00E000BF09
:1032600080BD00BF3B8AFE1F0FB480B588B000AFA1
:103270000023FB6000237B600023FB6107F12C032C
:103280007B600023FB764A484FF40061BA6A7B6892
:1032900001F08CF80346FB60464B00221A70FB6875
:1032A000002B08D0FB68B3F5006F04D2404AFB68DE
:1032B000134400221A7040483D49FA68FEF730FB7B
:1032C0000346FB72FB7A002B03D03A4B01221A70A3
:1032D00068E00220FFF75CFC05E0FFF769FC0346AD
:1032E000002B00D05EE0354B1B78DBB283F001038E
:1032F000DBB2002BF1D1314B00221A7000237B612D
:1033000034E02F4B00221A707B692E4A13442A485E
:1033100019460122FEF720FB0346BB72BB7A002B45
:1033200003D0244B01221A703CE00320FFF730FC4D
:103330000AE0FFF73DFC0346002B05D01E48FEF7D0
:1033400027FB0123FB7607E01D4B1B78DBB283F0E4
:103350000103DBB2002BECD1FB690133FB61FB7E87
:10336000002B00D006E07B6901337B617B69B3F5FC
:10337000806FC6DB00233B6110E0134A3B691344B6
:103380001A7810493B690B441B789A4203D0094BC9
:1033900001221A7006E03B6901333B613A69FB691F
:1033A0009A42EADB2037BD46BDE8804004B0704752
:1033B000708FFE1F3C8AFE1F0088FE1F398AFE1F89
:1033C0003A8AFE1F6C8BFE1F3866000880B582B0FB
:1033D00000AF0023FB710220FFF7DAFB06E0FFF7E6
:1033E000E7FB0346002B01D0002326E0154B1B789A
:1033F000DBB283F00103DBB2002BF0D17B1D12485E
:1034000019460122FEF752FB0346BB71BB79002B24
:1034100001D0002311E07B790A2B06D1FB790B4AFE
:103420000021D15400BFFB7907E0FB797979074A85
:10343000D154FB790133FB71CDE718460837BD46FF
:1034400080BD00BF3A8AFE1F0088FE1F6C8BFE1FE6
:1034500080B485B000AF786039600023FB600DE078
:10346000FB687A6813441A78FB6839680B441B7848
:103470009A4200D00EE0FB680133FB60FB687A687B
:1034800013441B78002B05D0FB683A6813441B7863
:10349000002BE5D1FB683A6813441B78002B01D15F
:1034A000012300E0002318461437BD465DF8047B75
:1034B000704700BF80B582B000AFFFF701FB034645
:1034C000FB71FB79002B00D0FEE7FFF769FEFCE7FC
:1034D00081F0004102E000BF83F0004330B54FEAC5
:1034E00041044FEA430594EA050F08BF90EA020F32
:1034F0001FBF54EA000C55EA020C7FEA645C7FEAC5
:10350000655C00F0E2804FEA5454D4EB5555B8BFE7
:103510006D420CDD2C4480EA020281EA030382EA58
:10352000000083EA010180EA020281EA0303362DEA
:1035300088BF30BD11F0004F4FEA01314FF4801CBD
:103540004CEA113102D0404261EB410113F0004FCF
:103550004FEA03334CEA133302D0524263EB430386
:1035600094EA050F00F0A780A4F10104D5F1200E24
:103570000DDB02FA0EFC22FA05F2801841F100017F
:1035800003FA0EF2801843FA05F359410EE0A5F153
:1035900020050EF1200E012A03FA0EFC28BF4CF084
:1035A000020C43FA05F3C01851EBE37101F000453A
:1035B00007D54FF0000EDCF1000C7EEB00006EEB47
:1035C0000101B1F5801F1BD3B1F5001F0CD34908D1
:1035D0005FEA30004FEA3C0C04F101044FEA445228
:1035E00012F5800F80F09A80BCF1004F08BF5FEAAF
:1035F000500C50F1000041EB045141EA050130BD8F
:103600005FEA4C0C404141EB010111F4801FA4F131
:103610000104E9D191F0000F04BF01460020B1FA86
:1036200081F308BF2033A3F10B03B3F120020CDABE
:103630000C3208DD02F1140CC2F10C0201FA0CF09C
:1036400021FA02F10CE002F11402D8BFC2F1200C01
:1036500001FA02F120FA0CFCDCBF41EA0C019040B7
:10366000E41AA2BF01EB0451294330BD6FEA040400
:103670001F3C1CDA0C340EDC04F11404C4F12002EB
:1036800020FA04F001FA02F340EA030021FA04F3FD
:1036900045EA030130BDC4F10C04C4F1200220FA54
:1036A00002F001FA04F340EA0300294630BD21FA92
:1036B00004F0294630BD94F0000F83F4801306BF58
:1036C00081F480110134013D4EE77FEA645C18BF4C
:1036D0007FEA655C29D094EA050F08BF90EA020FE3
:1036E00005D054EA000C04BF1946104630BD91EADB
:1036F000030F1EBF0021002030BD5FEA545C05D1DE
:103700004000494128BF41F0004130BD14F580041C
:103710003CBF01F5801130BD01F0004545F0FE4190
:1037200041F470014FF0000030BD7FEA645C1ABFC5
:10373000194610467FEA655C1CBF0B46024650EAFC
:10374000013406BF52EA033591EA030F41F4002128
:1037500030BD00BF90F0000F04BF0021704730B5AE
:103760004FF4806404F132044FF000054FF0000183
:1037700050E700BF90F0000F04BF0021704730B544
:103780004FF4806404F1320410F0004548BF404219
:103790004FF000013EE700BF42004FEAE2014FEA6E
:1037A00031014FEA02701FBF12F07F4393F07F4F49
:1037B00081F06051704792F0000F14BF93F07F4F7B
:1037C000704730B54FF4607401F0004521F00041BE
:1037D00020E700BF50EA010208BF704730B54FF044
:1037E00000050AE050EA010208BF704730B511F049
:1037F000004502D5404261EB41014FF4806404F181
:1038000032045FEA915C3FF4DCAE4FF003025FEA02
:10381000DC0C18BF03325FEADC0C18BF033202EB8A
:10382000DC02C2F1200300FA03FC20FA02F001FAE4
:1038300003FE40EA0E0021FA02F11444C1E600BF83
:10384000014B1868704700BFC489FE1F70B50E4B4E
:103850000E4CE41AA41000251E46A54204D056F8CA
:10386000253098470135F8E7FDF75CFF084C094B18
:10387000E41AA41000251E46A54204D056F82530AF
:1038800098470135F8E770BD008AFE1F008AFE1FC9
:10389000008AFE1F008AFE1F10B5431E0A44914293
:1038A00004D011F8014B03F8014FF8E710BD0244B2
:1038B0000346934202D003F8011BFAE770472DE953
:1038C000F04788B0002B149F1299109EDDF84CA091
:1038D0001D46B8BF05F1004327F02007B6BF1D46BF
:1038E00000232D231446B8BF1446462F0B7003D077
:1038F000452F03D1013601E0032300E002238DE8C8
:10390000480406AB039307AB049322462B4600F012
:10391000EBFD472F804602D1119BDB0726D5462FB2
:1039200008EB060911D198F80030302B0AD1204657
:1039300029460022002302F04DFB18B9C6F101060A
:10394000CAF80060DAF8003099442046294600227F
:10395000002302F03FFB08B1CDF81C90079B4B45BC
:1039600004D25A1C079230221A70F7E7079B159A67
:10397000C8EB03034046136008B0BDE8F08773B599
:1039800003460029B8BF494203F8022BB4BF2D22D9
:103990002B220929427019DD0DF1070426460A225F
:1039A00091FBF2F502FB15113031092D04F8011DD0
:1039B0002946F4DC3031651E04F8011CB5421A4674
:1039C0000AD215F8012B03F8012BF7E730241A4629
:1039D000214402F8024B5970101A02B070BD000069
:1039E0002DE9F04F91B08B4615461E461A9F0446AE
:1039F00001F03EFBD0F800A0504600F08DFC002303
:103A00000E933B680990073323F00703D3E90001C5
:103A100003F108029BF818803A60CBE9120100F02C
:103A2000EDFB0128DBE9120119D10022002302F08D
:103A3000DBFA10B12D238BF84330A04BA04FB8F127
:103A4000470F88BF1F460323CBF81030DBF8003048
:103A500023F00403CBF800304FF00009A1E000F0A0
:103A6000CDFBDBF8003048B9964A974FB8F1470FC5
:103A700088BF17460322CBF81020E9E7DBF80420C3
:103A80009BED127B571C8DED0A7B01D1062209E0CC
:103A9000B8F1670F02D0B8F1470F05D1002A40F006
:103AA000C7810122CBF80420DBF80420CDF8108078
:103AB00043F480638DE80C00CBF800300DF1330344
:103AC00002930DAB03930EAB0593002306932046A0
:103AD000DDE90A23FFF7F3FE08F0DF03472B074673
:103AE0000AD10D9BD81C03DBDBF80420934237DDA1
:103AF000A8F102085FFA88F8B8F1650F0D9915D89A
:103B0000013942460BF150000D91FFF738FF0E9A34
:103B10008318012A8146CBF8103003DCDBF8002043
:103B2000D10738D50133CBF8103034E0B8F1660F47
:103B300018D10029DBF8043009DDCBF810101BB9CF
:103B4000DBF80020D20721D501330B441CE01BB960
:103B5000DBF80020D00701D5023315E0012313E084
:103B60004FF067080D9B0E9A934207DBDBF80020AD
:103B7000CBF81030D10709D5013305E0002BD4BFB5
:103B8000C3F1020301231344CBF810300D9BCBF893
:103B900058304FF000099DF8333013B12D238BF8C6
:103BA00043300096204659460FAA2B4600F05CF998
:103BB000013002D14FF0FF3052E1DBF800305A05FE
:103BC00005D4204629463A46DBF8103008E1B8F122
:103BD000650F40F2D080DBE912010022002302F0E1
:103BE000F9F950B320462946384A0123B04701303D
:103BF000E0D00E9B0D9A9A4209DBDBF80030D80723
:103C000005D4DBF800309F0700F1108107E1204662
:103C100029465246099BB0470130CBD000270E9B66
:103C2000013B9F42EDDA204629460BF11A0201239F
:103C3000B0470130BED00137F1E70D9B002B29DCE6
:103C400020462946214A0123B0470130B2D00D9BBE
:103C50002BB90E9B1BB9DBF80030D907D1D5204614
:103C600029465246099BB0470130A3D04FF00008C7
:103C70000D9B5B4298452046294608DA0BF11A0253
:103C80000123B047013095D008F10108F0E73A462A
:103C90000E9BA5E0DBF858200E9B9A42A8BF1A465F
:103CA000002A914602DC4FF000081CE0204629461D
:103CB0003A464B46B0470130F5D17BE7066A00082B
:103CC000026A00080E6A00080A6A0008126A000800
:103CD000204629460BF11A020123B04701303FF478
:103CE00069AF08F10108DBF85830B9F1000FACBF3B
:103CF000C9EB03021A469045EADB07EB03080D9A6D
:103D00000E9B9A4210DBDBF80030DA070CD40E9AD7
:103D10001744C8EB07030D9FD21B9342A8BF13465D
:103D2000002B1F4608DC0EE0204629465246099B20
:103D3000B0470130EBD13DE7204629464246B04727
:103D400001303FF437AF4FF000080AE02046294623
:103D50000BF11A020123B04701303FF42BAF08F1F9
:103D600001080D9A0E9B002FA3EB0203A8BFDB1BDB
:103D70009845EBDB45E70E9A012A01DCDB0736D5D7
:103D8000204629463A460123B04701303FF412AF9E
:103D9000204629465246099BB04701303FF40AAFFE
:103DA000DBE912010022002302F014F9E8B90E9BAE
:103DB000204629467A1C013B1DE0204629460BF18E
:103DC0001A020123B04701303FF4F4AE01370E9BD5
:103DD000013B9F42F1DB204629460BF150024B4646
:103DE000B04701307FF40DAFE4E60027EFE720464F
:103DF00029463A460123B0470130ECD1DAE62046A5
:103E000029460BF119020123B04701303FF4D2AE2D
:103E10000137DBF80C300F9A9B1A9F42EFDBDBF87F
:103E20000C000F9B9842B8BF184619E00027F0E736
:103E300043F480638DE80C00CBF800300DF13303C0
:103E400002930DAB03930EAB059300230693CDF8BD
:103E500010802046DDE90A23FFF731FD074640E6E2
:103E600011B0BDE8F08F00BF2DE9F84391461F4621
:103E70008A680B69DDF820809342B8BF1346C9F801
:103E8000003091F8432006460C4612B10133C9F8C0
:103E900000302368990642BFD9F800300233C9F8D0
:103EA0000030256815F006051CD094F843302268D0
:103EB000003318BF012392061FD5E1185A1C302089
:103EC00081F84300224494F8451082F843100233ED
:103ED00013E03046394604F119020123C04701308E
:103EE00007D00135E368D9F800209B1A9D42F0DB2A
:103EF000DBE74FF0FF30BDE8F8833046394604F188
:103F00004302C0470130F4D02268D9F80050E3687A
:103F100002F00602042A08BF5D1B2269A3680CBFD9
:103F200025EAE57500259342C4BF9B1AED184FF0B2
:103F30000009A9450ADA3046394604F11A0201237C
:103F4000C0470130D5D009F10109F2E70020BDE8F2
:103F5000F88300002DE9FF410C461746227E6E2AA9
:103F6000984606460A9B01F1430100F0A98012D849
:103F7000632A23D00AD8002A00F0B680582A40F0DD
:103F8000C58084F84520DFF8F8E151E0642A1ED0AE
:103F9000692A1CD0BAE0732A00F0AA8009D86F2AD7
:103FA0002BD0702A40F0B280226842F020022260BA
:103FB00039E0752A21D0782A35D0A7E01A68111D7A
:103FC0001960136884F8423004F14205A2E02068C9
:103FD0001A6810F0800F03D0101D1860136805E0F8
:103FE0004506F9D5101D1860B2F90030002B3BDAF8
:103FF0002D225B4284F8432036E020681A6810F0D6
:10400000800F03D0101D1860136804E04006F9D536
:10401000101D18601388227EDFF864E16F2A0CBF40
:1040200008220A221CE07822DFF858E184F84520B3
:104030002268186812F0800F00F104051D6001D09D
:10404000036802E05506FBD50388D00744BF42F061
:10405000200222601BB9226822F020022260102276
:10406000002084F8430002E0DFF814E10A226568CA
:10407000A560002DA2BF206820F00400206003B9D5
:1040800065B10D46B3FBF2F002FB10331EF80330AE
:1040900005F8013D03460028F4D100E00D46082A4A
:1040A0000BD12368DA0708D5236962689A42DEBF1C
:1040B000302305F8013C05F1FF35491B21612EE055
:1040C00025681A68606915F0800F03D0151D1D6002
:1040D000136808E015F0400F02F104051D60136835
:1040E00001D0188000E01860002323610D4616E01F
:1040F0001A68111D1960156862682846002100F0D1
:10410000C3FF08B1401B6060636804E004F142052E
:1041100084F8422001232361002384F84330CDF842
:1041200000803046214603AA3B46FFF79DFE013042
:1041300002D14FF0FF301FE0304639462A4623694E
:10414000C0470130F5D023689B0705D4E068039B86
:104150009842B8BF18460FE00025E368039A9B1AFF
:104160009D42F3DA3046394604F119020123C04773
:104170000130DED00135F0E704B0BDE8F08100BFCA
:10418000146A0008256A0008194B10B51C68A36B57
:10419000D3B9182000F070FF43F20E33A063038000
:1041A0004AF6CD33438041F2342383804EF26D636F
:1041B000C3804DF6EC630381052343810B23838188
:1041C00001220023C0E90423A16B0A4C0B69486952
:1041D000094A5C4302FB0040A3FB02230132034473
:1041E00043F10003C1E9042323F0004010BD00BFE8
:1041F000C489FE1F2DF451582D7F954C0A4631F08D
:10420000004110B503461BD00F48A2F5801484422C
:1042100010D902F1FF420C4802F5E002824209D9AE
:10422000B1F5801F08D3094A914207D1B3FA83F050
:10423000400910BD042010BD032010BD002010BD9A
:104240000028E6D1022010BDFFFFDF7F0000F07FD5
:104250000CB430B5164B0C1E9DB01D6804DA8B23D0
:104260002B604FF0FF301EE04FF40273ADF81430B6
:1042700014BF04F1FF332346049307934FF6FF73F3
:1042800002900690ADF81630284621AB02A9209A7C
:10429000019301F0E9FA431CBCBF8B232B6014B1DE
:1042A000029B00221A701DB0BDE8304002B070477A
:1042B000C489FE1F0EB400B59CB04FF40271ADF876
:1042C00014106FF00041049107914FF6FF711DAB80
:1042D000ADF81610084953F8042B029006900868B0
:1042E000019302A901F0C0FA029B00221A701CB0CF
:1042F0005DF804EB03B07047C489FE1FC9B20346E2
:1043000010F8012B1AB18A42F9D1184670470029DA
:104310000CBF184600207047034613F8012B002AF3
:10432000FBD1181A0138704730B5037823B90B78E0
:10433000002B18BF002030BD034601301A783AB177
:1043400000228C5C34B19D5CA542F5D10132F8E7C6
:10435000104630BD184630BD30B5141E9BB0054622
:1043600004DA8B2303604FF0FF301CE04FF402723D
:10437000ADF80C2014BF04F1FF32224602920592E0
:104380004FF6FF7200910491ADF80E2069461A466F
:104390001E9B01F069FA431CBCBF8B232B6014B138
:1043A000009B00221A701BB030BD000073B5009353
:1043B000054B06460D461446186831462A462346E4
:1043C000FFF7CAFF02B070BDC489FE1F2DE9F74F89
:1043D00003690C69A3428046C0F28180013C01F16F
:1043E00014074FEA840E00F1140657F8245006EB28
:1043F0000E030193013556F82430B3FBF5F507EBB6
:104400000E09C5B34FF0000A3846B446D34650F8FB
:10441000043B9AB21B0C02FB05A26B4303EB124355
:1044200092B2C2EB0B02BCF800B04FEA134A12FA88
:104430008BF21FFA83FBDCF80030CBEB134303EB6A
:10444000224392B242EA034248454FEA234B4CF8DA
:10445000042BDCD956F80E306BB9019B043BB342F8
:104460001A4602D8C8F8104005E01268043B002A3A
:10447000F8D1013CF3E7404601F027F800282CDB97
:10448000013530464FF0000E57F8041BD0F800C03D
:104490008AB2C2EB0E03090C13FA8CF3C1EB1C4277
:1044A00002EB23429BB243EA02434F454FEA224EBE
:1044B00040F8043BE8D956F8242006EB840362B99F
:1044C000043BB3421A4602D8C8F8104005E012680F
:1044D000043B002AF8D1013CF3E7284600E0002025
:1044E00003B0BDE8F08F00002DE9F04F456A97B0AA
:1044F0008246239CCDE9022345B9102000F0BCFD83
:10450000CAF82400456085600560C560DAF824308B
:10451000196859B15A684A60012393408B6050462C
:1045200000F0F6FDDAF8243000221A60039BA24A5C
:10453000002BBFBF01232360039B23F00043B8BFC0
:104540000393039FA4BF0023236027F000431B0DA8
:104550001B0593421DD1229A42F20F731360029BF6
:1045600043B9964A964BC7F31300002814BF184668
:10457000104600E09248249B002B00F07385C3781E
:1045800013B100F1080300E0C31C249A136000F08B
:1045900069BDDDE90245002220462946002301F0DD
:1045A00019FD804658B1229A01231360249B002BE9
:1045B00000F0468583481860013800F053BD15AB04
:1045C000009314AB0193504622462B4600F0F8FFAF
:1045D000C7F30A5607905EB1C5F3130343F07F514A
:1045E000204641F44011A6F2FF36CDF84C801DE084
:1045F000159B149E1E446FF482639E42ADBF029AC7
:10460000714B029A06F21243A3BF22FA03F06F4BDA
:104610009B1B9B1BAABF9F4002FA03F03843FFF786
:1046200099F80123A1F1F871013E13930022684B20
:10463000FEF752FF5AA3D3E9002301F063FA5AA30D
:10464000D3E90023FEF74AFF044630460D46FFF744
:1046500091F857A3D3E9002301F054FA02460B4620
:1046600020462946FEF73AFF04460D4601F0E4FCD9
:104670002946834600222046002301F0B5FC58B1AC
:104680005846FFF777F802460B462046294601F0C8
:10469000A1FC08B90BF1FF3BBBF1160F0DD84D4B38
:1046A00003EBCB03D3E90001DDE9022301F0BAFCFF
:1046B00030B10BF1FF3B002300E00123129300E037
:1046C0001290149B9E1B731E0A9345BF5B42099375
:1046D000002300234CBF0A930993BBF1000F07DBB3
:1046E0000A9BCDF834B05B440A9300230B9308E097
:1046F000099BCBEB03030993CBF100030B9300233E
:104700000D93209B092B28D8052BC4BF043B209375
:10471000209BA3F10203CCBF00250125032B21D848
:10472000DFE803F0020E0410002300E001230C93E5
:10473000219B002B20DC0123069305931A4619E0E8
:10474000002300E001230C93219B5B44069301337B
:10475000012B0593B8BF012311E00125002320930D
:104760000C9501E001230C934FF0FF330693059362
:1047700000221223219202E0219B06930593DAF88E
:10478000244000226260042101F114029A4223D8DD
:104790006268013262604900F6E700BFAFF3008053
:1047A00061436F63A787D23FB3C8608B288AC63F37
:1047B000FB799F501344D33F0000F07F366A000816
:1047C0003F6A0008136A0008EEFBFFFF0EFCFFFFC4
:1047D0000000F83F506A00085046616800F063FC32
:1047E000DAF8243020601B680893059B0E2B00F23A
:1047F0004B81002D00F048819DED027BBBF1000F45
:104800008DED107B31DDB34A0BF00F034FEA2B1710
:1048100002EBC303F806D3E900450CD5AE4B51ECCF
:10482000170BD3E9082301F097FA07F00F07CDE93A
:104830000201032600E00226DFF89C8277B1F90727
:1048400008D520462946D8E9002301F05BF9013656
:1048500004460D467F1008F10808EFE7DDE9020184
:1048600022462B4601F078FA1BE0CBF10004DCB1C4
:10487000984B994D04F00F0203EBC203DDE91001E0
:10488000D3E9002301F03EF9241102264CB1E207DE
:1048900004D5D5E90023013601F034F96410083558
:1048A000F4E7CDE9020100E00226129BDBB1DDE96D
:1048B0000245002220462946884B01F095FB90B125
:1048C000059B83B1069B002B40F3DA8029462046E6
:1048D0000022834B01F016F90BF1FF37CDE90201FD
:1048E0000136069D01E0059D5F469DED027B304649
:1048F0008DED0E7BFEF73EFFDDE90E2301F002F9A0
:104900000022784BFEF7EAFD8046A1F15079CDB93F
:104910000022754BDDE90E01FEF7DEFD42464B46F7
:10492000CDE9020101F07EFB002840F046824246BC
:1049300009F10043DDE9020101F056FB002840F0D7
:1049400036829DE0634B0C996A1E03EBC20300297B
:1049500049D0D3E900230020644901F0FDF9424623
:104960004B46FEF7B9FDDDE90E89CDE90201089C51
:104970004946404601F060FB0646FEF7FBFE024654
:104980000B4640464946FEF7A7FD303604F8016B5A
:10499000DDE902238046894601F026FB002840F02D
:1049A000408342464B4600204C49FEF795FDDDE929
:1049B000022301F019FB002840F0D380089BE31A82
:1049C000AB425DDADDE902010022454B01F09AF8C5
:1049D0000022CDE90201424B4046494601F092F8DF
:1049E00080468946C4E7D3E9000142464B4601F0C0
:1049F00089F8089BCDE90201DDE90E895C191D46A5
:104A00004946404601F018FB0646FEF7B3FE303635
:104A100002460B4640464946FEF75EFD05F8016B2F
:104A2000A5428046894624D10022304BDDE90201AF
:104A3000FEF754FD02460B464046494601F0F2FAA5
:104A4000002840F08E80DDE9022300202749FEF790
:104A500043FD02460B464046494601F0C5FA78B18F
:104A600014F8013C302B04F1FF3240F0DA82144696
:104A7000F6E700221A4B01F045F880468946BFE769
:104A8000DDE91023CDE90223159B002BC0F28B80BA
:104A9000BBF10E0F00F387800E4B03EBCB03D3E982
:104AA0000067219B002B23DA059B002B20DC40F0C4
:104AB0007D81304600220C4B394601F023F8DDE9B8
:104AC000022301F0A5FA059D2E46002840F07081D2
:104AD00075E100BF506A0008186B00080000F03F45
:104AE0000000244000001C40000014400000E03F93
:104AF000DDE90289089C32463B464046494601F0C2
:104B00002BF901F099FA0546FEF734FE32463B4692
:104B100000F0F8FF0B46024649464046FEF7DCFC33
:104B200005F1300E089B04F801EBC3EB040E059B66
:104B30009E452BD102460B46FEF7D0FC32463B4643
:104B40008046894601F06EFA70B9404649463246C1
:104B50003B4601F03FFA002800F06482EB0703D4E3
:104B600060E2BB4600E01C4614F8012C392A04F12F
:104B7000FF3307D1089A9342F5D1302313700BF11C
:104B8000010B13461A7801321A704BE20022A44B33
:104B900000F0B8FF002200238046894601F01AFA8F
:104BA0000028A8D03EE20C9A002A32D0209A012A8E
:104BB0000ADC139A12B103F2334302E0149BC3F1EF
:104BC00036030B9D099C18E0059B5D1E0B9BAB42B9
:104BD000BFBF0B9B0B95EA1A0D9BB6BF9B185D1BC5
:104BE0000D93059BB8BF0025002BB9BF099B059A03
:104BF000099C059BBCBF9C1A0023099A1A44099280
:104C00000A9A50461A4401210A9200F023FB0646F4
:104C100002E00B9D099C0C9E64B10A9B002B09DDF0
:104C2000A342099AA8BF2346D21A09920A9AE41A03
:104C3000D31A0A930B9B002B20DD0C9BC3B1002DD4
:104C400010DD31462A46504600F09EFB06463146AE
:104C5000079A504600F007FB07990746504600F0B8
:104C600057FA07970B9B5A1B08D05046079902E04A
:104C700007990B9A504600F087FB07905046012198
:104C800000F0E8FA0D9B002B05460ADD29461A467E
:104C9000504600F079FB209B012B054604DD0027E0
:104CA0001BE0209B012B13DC029B8BB9039BC3F3FE
:104CB00013037BB9039B23F000473F0D3F0557B11A
:104CC000099B013309930A9B01330A93012702E0F0
:104CD000002700E0029F0D9B43B12B6905EB830386
:104CE000186900F06AFAC0F1200000E001200A9B78
:104CF000184410F01F0008D0C0F12003042B02DD7F
:104D0000C0F11C0002E008D018461C30099B034487
:104D100009930A9B034404440A93099B002B05DD75
:104D2000504607991A4600F07DFB07900A9B002B1E
:104D300005DD294650461A4600F074FB0546129BD5
:104D4000EBB10798294600F0C0FB002817DA0023D2
:104D5000504607990A2200F0F2F90C9B07900BF1DC
:104D6000FF3B002B00F070813146002350460A22A1
:104D700000F0E5F9069B002B064633DC6DE1059B50
:104D8000002B26DC209B022B23DD059B0693069B34
:104D900073B929460522504600F0D1F90546294647
:104DA000079800F092FB002809DC01E000252E4660
:104DB000219B089C6FEA030B08E0BB462E46089B2C
:104DC000089A5C1C312313700BF1010BB1460026CD
:104DD00014E10C9B23B9059B0693089F079CCCE02C
:104DE000059B0693002C05DD31465046224600F017
:104DF00019FB0646B7B17168504600F054F93269A4
:104E00000232044606F10C0192000C30FEF744FD1C
:104E100050462146012200F005FB814603E000BF19
:104E200000002440B146089F079C29462046FFF712
:104E3000CDFA3146099000F13008204600F045FBDC
:104E40004A4605902946504600F05BFBC26803467F
:104E50003AB919462046079300F037FB079B0246F4
:104E600000E0012250461946079200F051F9079AD6
:104E7000A2B9209B93B9029B03F0010373B9B8F167
:104E8000390F3B46079440D0059B002BC8BF099BB8
:104E900007F10104C8BF03F131083DE0059B002B79
:104EA00004DA002AC446079408DC21E024D1209BC0
:104EB00013BB029B03F00103F3B9F2E72146012281
:104EC00050460597CDF8088000F0ACFA29460790C7
:104ED00000F0FBFA0028DDF808C0059B03DC07D1D1
:104EE00018F0010F04D0B8F1390F0ED008F1010C01
:104EF0007C1C87F800C081E0002A07F101020EDD6A
:104F0000B8F1390F3B46079403D1392201371A70A3
:104F100057E0144608F1010887F800806EE0089B0E
:104F200002F8018CD31A1746069A93423AD02146CA
:104F30000A220023504600F002F94E45044631464D
:104F400050464FF00A024FF0000304D100F0F7F88A
:104F50000646814669E700F0F2F8494606460A220D
:104F60005046002300F0EBF881465EE721465046AC
:104F70000A22002300F0E3F8044620462946FFF702
:104F800025FA00F1300807F8018B089B069AFB1AF6
:104F90009342EBDB089B012AACBF9B180133B1465F
:104FA0001F46002621460122504600F03BFA2946C2
:104FB000079000F08AFA002803DC16D118F0010FE0
:104FC00013D03C4614F8013C392B04F1FF3209D1CF
:104FD000089B9A4204D10BF1010B3123089A02E09D
:104FE0001446EFE70133137008E03C4614F8013C27
:104FF000302B04F1FF3201D11446F7E75046294621
:1050000000F086F8B9F1000F0CD02EB14E4503D058
:105010005046314600F07CF85046494600F078F89A
:1050200000E0BB465046079900F072F80023229A30
:1050300023700BF101031360249B1BB11C6001E082
:105040000A480FE008980DE0069B002B3FF7C5AE1D
:10505000209B022B3FF79BAEBFE6209B022B3FF726
:1050600096AEBFE617B0BDE8F08F00BF126A000829
:1050700000487047C889FE1F024B0146186800F0BF
:1050800043BB00BFC489FE1F10B5C9B202449042A1
:10509000034606D01C788C4200F10100F7D1184677
:1050A00010BD002010BD70B5456A04460E463DB9DE
:1050B0001020FFF7E1FF6062456085600560C56014
:1050C000656AEB6843B1636ADB6853F8260078B120
:1050D000026843F8262017E020460421212200F030
:1050E000C1FA636AE860DB68002BECD1002070BD78
:1050F000012101FA06F56A1D2046920000F0B2FA7D
:105100000028F3D04660856000230361C36070BD52
:1051100070B5446A06460D463CB91020FFF7ACFF57
:105120007062446084600460C4603DB1736A6A6800
:10513000DB6853F82210296043F8225070BD2DE936
:10514000F0410F69984606460C4601F1140E002303
:10515000DEF8000085B2010C02FB0585514301EB2E
:1051600015410133ADB24FEA1148BB4205EB014195
:105170004EF8041BECDBB8F1000F1BD0A3689F4274
:1051800012DB616830460131FFF78DFF2269023280
:1051900004F10C01054692000C30FEF77DFB214620
:1051A0003046FFF7B5FF2C4604EB87030137C3F801
:1051B000148027612046BDE8F081030C1B0413B95D
:1051C0000004102300E0002310F07F4F04BF000212
:1051D000083310F0704F04BF0001043310F0404F4B
:1051E00004BF80000233002803DB420003D5581CB3
:1051F00070471846704720207047036813F0070275
:105200000BD0D90722D49A074BBF5B089B080360D9
:1052100003604CBF01200220704799B209B91B0CF2
:10522000102213F0FF0F04BF1B0A0832190704BF36
:105230001B090432990704BF9B080232D90702D424
:105240005B0805D0013203601046704700207047AC
:105250002020704710B50C460121FFF724FF0122E2
:105260004461026110BD2DE9F74F14460A692369B4
:105270009A42B8BF0B468846BCBFA0461C46D8F829
:105280001070D4F81090D8F80830D8F8041007EB54
:1052900009069E42C8BF0131FFF705FF00F1140562
:1052A00005EB860C2B46634503D2002243F8042B02
:1052B000F9E704F1140208F1140102EB890301EB90
:1052C00087070093009B01929A4257D2B2F800B030
:1052D000BBF1000F23D08946AE464FF0000859F8C5
:1052E000044BBEF800A0A3B20BFB03A34FEA144A81
:1052F000DEF8004043444FEA14480BFB0A8404EBF9
:105300001344F2469BB243EA04434F454FEA144824
:105310004AF8043B01D9D646E1E7CEF80480019B68
:10532000B3F802A00432BAF1000F21D02B682C464A
:1053300089464FF00008B9F800E0B4F802B00AFB63
:105340000EBEF044A3469BB243EA08434BF8043B2D
:1053500059F8043BB4F804E01B0C0AFB03E303EB2D
:105360001843B9454FEA134801D25C46E3E763604E
:105370000435A7E75CF8043D13B9013E002EF9DCC3
:10538000066103B0BDE8F08F12F003032DE9F04190
:1053900006460F46154607D0013B214A52F8232006
:1053A0000023FFF7CCFE0746AD1035D0746A3CB938
:1053B0001020FFF761FE7062446084600460C46086
:1053C000D6F82480D8F808407CB9304640F27121E4
:1053D000FFF740FF0023C8F808000446036004E01C
:1053E0006D1019D0206870B10446EB07F8D5394626
:1053F00022463046FFF737FF394680463046FFF7F2
:1054000087FE4746ECE7304621462246FFF72BFF52
:10541000002320600360E7E73846BDE8F08100BF65
:10542000406B00082DE9F0470C464FEA621A2369E9
:1054300049680AEB0309A3680746164609F1010506
:105440009D4202DD01315B00FAE73846FFF72BFE93
:105450000023804600F11401534504DA002241F88C
:1054600023200133F8E72AEAEA73206901EB83037A
:1054700016F01F0204F1140101EB800E14D0C2F1EA
:10548000200C00200E68964030439A4643F8040BE7
:1054900051F8040B714520FA0CF0F3D3CAF804005C
:1054A00048B109F1020506E0043B51F8042B43F82A
:1054B000042F7145F9D3013D3846C8F810502146F4
:1054C000FFF726FE4046BDE8F08703690A699B1A8C
:1054D00010B511D192001430143183180A4453F8D6
:1054E000044D52F8041D8C4202D007D3012010BD98
:1054F0008342F4D8002010BD184610BD4FF0FF3095
:1055000010BD2DE9F84307460C46084611461546DE
:10551000FFF7DBFF061E08D138463146FFF7C3FD13
:10552000012303614661BDE8F883BCBF23462C46D6
:1055300038466168BABF1D4601260026FFF7B3FD55
:105540002B69C660266905F11409143404EB86073B
:1055500009EB830800F114054FF0000C54F8043BEC
:1055600059F8042B1CFA83F11FFA82FE120CCEEBC1
:105570000101C2EB134303EB214389B24FEA234CF1
:10558000C84541EA0343A64645F8043BE6D8BE4574
:105590000ED25EF8042B1CFA82F4120C02EB2442A9
:1055A000A4B24FEA224C44EA024245F8042BEEE74B
:1055B00055F8043D0BB9013EFAE70661BDE8F883F2
:1055C0002DE9F34101211D46089F099E1446FFF76E
:1055D0006AFDC5F31303C5F30A5580460DB143F4C4
:1055E00080130193ECB102A840F8084DFFF705FEC7
:1055F000009B50B1019AC0F1200102FA01F10B4366
:10560000C240C8F81430019201E0C8F81430019B80
:10561000C8F81830002B14BF02240124C8F8104029
:1056200009E001A8FFF7E9FD0124019BC8F8143047
:10563000C8F81040203035B1A5F2334505443D602F
:10564000C0F1350009E008EB8403A0F23240386075
:105650001869FFF7B2FDC0EB44103060404602B05D
:10566000BDE8F08138B502FB01F4214600F04CF8AA
:10567000054618B100212246FEF719F9284638BD23
:1056800030B500293DD051F8042C0B1F1D49002ACC
:10569000B8BF9B180A680C4612B95A600B6030BD3F
:1056A00093420DD219685818904201BF5A585218A7
:1056B0001A6042685A60236030BD994203D80A4696
:1056C00051680029F9D1146815199D420AD11B6847
:1056D0002344D0188842136013D108680344136030
:1056E0004B680DE002D90C23036030BD1C6818190B
:1056F000884204BF08684968596004BF00191860EF
:10570000536030BD448AFE1F70B5CC1C24F00304E6
:1057100008340C2C38BF0C24002C064603DA0C236A
:105720003360002070BD8C42F9D3204A13681046C4
:105730001946A1B10A68121B0ED40B2A03D90A60BC
:105740008B188C501FE08B420DBF5A684A685A6014
:10575000026018BF0B4616E00B464968E9E7144D96
:105760002B681BB9304600F071F92860304621469D
:1057700000F06CF9421C0346D1D0C51C25F003058E
:1057800085420AD11C6003F10B001A1D20F00700AE
:10579000821A0AD05142995070BD3046E91A00F081
:1057A00055F90130BBD02B46ECE770BD448AFE1F93
:1057B000408AFE1F2DE9F0478E68B34282460C46B0
:1057C0009046994640D38A8912F4906F3AD0256862
:1057D00009696F1A6569022305EB450595FBF3F529
:1057E0007B1C4B449D4238BF1D4653050FD52946AF
:1057F000FFF78AFF064698B121693A46FEF74CF852
:10580000A38923F4906343F08003A38113E02A4625
:1058100000F047F9064670B950462169FFF730FF9E
:105820000C23CAF80030A38943F04003A3814FF052
:10583000FF30BDE8F087266165613E44ED1B2660C0
:10584000A5604E46B14500D24E46324620684146DC
:1058500000F00CF9A3689B1BA36023681E4426601C
:105860000020BDE8F08700002DE9F0439DB006461A
:1058700003938B891C060D4690460CD50B6953B9D2
:105880004021FFF741FF2860286110B90C233360E5
:10589000CCE040236B610023099320238DF829304D
:1058A00030238DF82A3043461C4613F8012B1AB9D1
:1058B000B4EB08090FD002E0252AF5D1F8E730460D
:1058C000294642464B46FFF775FF013000F0A9809C
:1058D000099B4B4409932378002B00F0A2800023FE
:1058E0004FF0FF3204930793059206938DF85330DF
:1058F0001A9304F101084446DFF84891217848469C
:105900000522FFF7C1FB08F10108049B30B1C9EB88
:1059100000000122824013430493ECE7D80644BF01
:1059200020228DF85320190744BF2B228DF85320D5
:1059300022782A2A02D0079923460EE0039A111DE5
:1059400012680391002ABBBF524243F00203079240
:105950000792B8BF049301340AE01C460133227851
:10596000303A092A03D80A2000FB0121F5E7079104
:1059700023782E2B1AD163782A2B0AD1039B1A1D68
:105980001B680392002BB8BF4FF0FF33023405931E
:105990000CE0611C00220C4601312378303B092BBE
:1059A00003D80A2000FB0232F5E70592DFF8988061
:1059B000217840460322FFF767FB38B1049AC8EB11
:1059C00000004023834013430493013421781A4894
:1059D0008DF82810062204F10108FFF755FB88B165
:1059E000164B33B9039B073323F0070308330393A4
:1059F00013E003AB0093304604A92A46104BFDF791
:105A0000EFFF07E003AB0093304604A92A460C4B96
:105A1000FEF7A0FA421C074603D0099B3B440993BA
:105A200041E7AB895B0601D4099801E04FF0FF30F4
:105A30001DB0BDE8F08300BF566B0008E1390008D7
:105A4000B55700084C6B0008526B000838B5064C7F
:105A50000023054608462360FBF730FE431C02D1B5
:105A6000236803B12B6038BD74A2FE1F814210B5BC
:105A700001EB020301D3421E0BE09842FBD28118D6
:105A8000D21AD34204D013F8014D01F8014DF8E7C2
:105A900010BD994204D011F8014B02F8014FF8E70C
:105AA00010BDF8B5074615460E4621B91146BDE8AA
:105AB000F840FFF729BE1AB9FFF7E2FD2846F8BD06
:105AC00000F015F8A8420ED238462946FFF71CFE12
:105AD000044650B131462A46FDF7DEFE38463146CF
